:02000000022DCF
:0E000600213083120313FD00FD0B07280800B4
:100014000F3083120313FC004730FD00FD0B102842
:0A002400FC0B10280000000008008B
:06002E00000000000800C4
:1000340083160313A31B21288312861123288312FA
:1000440086158316231B2928831206112B28831255
:1000540006158316A31A31288312861033288312B7
:1000640086148316231A3928831206103B28831218
:10007400061455183F28061640280612861617201F
:1000840086128316A3194928831286114B288312DA
:1000940086158316231951288312061153288312B7
:1000A40006158316A3185928831286105B28831219
:1000B400861483162318612883120610632883127A
:1000C400061455186728061668280612861617207F
:0E00D4008612551C6F280A2070280320080091
:1000E200FB14FB1F7B28FF30F300F200F100F0004D
:0800F200FA0DF20CFF300800CA
:0E00FA00F201F101F001F801F30100300800FD
:08010800FA1FF2130030080099
:100110007B15FB1F92280130F300F201F101F00181
:08012000FA0DF20CFF3008009B
:0E0128008312031354088A0053088200080053
:1001360083120313FA017308031D7A147708031D4B
:10014600FA147A080319E728033A0319B2287A1829
:10015600AF28F61FE528E328F21FE328E5287208F2
:100166008039FA00F21376088039F6137A060319F5
:10017600C0287A080319E328E528770873020319CB
:10018600C728031CDB28DF28760872020319CE284D
:10019600031CDB28DF28750871020319D528031C08
:1001A600DB28DF28740870020319E7280318DF2804
:1001B600FA080319E528E328FA080319E328E528CD
:1001C60003140800031008000314031508000800B0
:1001D6000E3083120313FD00FD0BEF28000008000C
:1001E60083120313551083162108A3001A205514F1
:0201F6000800FF
:1001F800831603132108F2007208F100F20A22089C
:10020800F000A20A700884000008F0007108840059
:100218007008800071088400000803191429002957
:060228002108F0000800AF
:10022E00A0017208031D2C297108F2007008F1005C
:10023E00F001A0157208031D2C297108F200F101BE
:10024E00A0112016720803193A292008F302031D83
:10025E00031C3E290310F21B4229F00DF10DF20D85
:10026E00F30B32293E290130FC007D204529023056
:0E027E00FC00882045290430FC008420080084
:10028C0083120313FB017308031D770803199D29BF
:10029C0072087606FA007708F3077E30031C5A2999
:1002AC00F3020318A0295D29F302031CA329720889
:1002BC00F8007108FC007008FD00F817F617031021
:1002CC00F201F101F0011830A0007D1C77297408AF
:1002DC00F00775080318750FF10776080318760FE9
:1002EC00F207F20CF10CF00CF80CFC0CFD0C0310EA
:1002FC00A00B6B29F21B8729F80DF00DF10DF20DF7
:10030C00F3037B1B701C9929F81F9929F00A031918
:10031C00F10A0319F20A031D9929F20CF10CF00CE5
:10032C00F30A0319A029FA1FF2130030A529013092
:10033C007D20A52902307120A529043088200000D9
:02034C000800A7
:10034E0083120313FD01F8017008031900347406BB
:10035E00FA00FA1BFD09FB01F41FB729F409F40A90
:10036E00F01FBB29F009F00A70087404FA00FA1B9A
:10037E00DF297408F802F00D700DF80D7408F807F7
:10038E00F00D0630FC00700DF80D74087018F802B0
:10039E00701CF807F00DFC0BCA29701CF8077B18AF
:1003AE00ED29FD1F0034F009F00AF809F80A0034AF
:1003BE00F41FEA29F01BE7297008F800F001D8298C
:1003CE00F001F00A0034F009FB0AC029F80A74089B
:1003DE007802031DD829F801F00AF01FD829FF343E
:0203EE00080005
:1003F00083120313EF018316A00183126408EB003C
:100400006508EC006608ED006708EE006E08FF3A2C
:10041000031D142A6D08FF3A031D142A6C08FF3AC5
:10042000031D142A6B08FF3A031D1F2A6808831650
:10043000A1003430A200FC200330F000132C013066
:100440008312E900ED1F2F2A80306D06F00070083E
:10045000ED00E90A680884002D308000E80A0030C9
:10046000F0006E06031D3E2A70086D06031D3E2A2D
:1004700070086C06031D3E2A6B08003A031D482ACB
:1004800068088316A1003930A200FC20F001132C6B
:1004900083126E08FF3A031D572A6D08003A031DA8
:1004A000572A6C08003A031D572A6B08003A031DAF
:1004B000632A68088316A1003B30A200FC20831247
:1004C0006908F000132C83120030F4000030F500AE
:1004D0000030F6007F30F7006B08F0006C08F10088
:1004E0006D08F2006E08F3009B2001300318003005
:1004F000F00070080319982A6B08F0006C08F100EE
:100500006D08F2006E08F3000030F4000030F500D2
:100510002030F6008230F70046217008EB007108A9
:10052000EC007208ED007308EE008316A003632A46
:100530000030F4000030F5002030F6008230F70083
:1005400083126B08F0006C08F1006D08F2006E0871
:10055000F3009B200130031C0030F00070080319E9
:10056000CD2A6B08F0006C08F1006D08F2006E08EF
:10057000F300CD30F400CC30F5004C30F6007B3089
:10058000F70046217008EB007108EC007208ED00DE
:100590007308EE008316A00A982AFF3083126B05B9
:1005A000F800FF306C05F9007F306D05FA0000306F
:1005B0006E05FB007808F4007908F5007A08F6006B
:1005C0007B08F700F40DF50DF60DF70D74100030F3
:1005D0006B05F00000306C05F10000306D05F20095
:1005E000FF306E05F3007008EB007108EC00720834
:1005F000ED007308EE0074086B04F00075086C04DD
:10060000F10076086D04F20077086E04F3007008BC
:10061000EB007108EC007208ED007308EE007F300B
:100620006E02F0007008EA000130EE007008F4007D
:100630006B08F0006C08F1006D08F2006E08F30022
:10064000740803192A2BF00DF10DF20DF30D701043
:10065000FF3E212B83127008EB007108EC0072083A
:10066000ED007308EE006E08303EF000680884006C
:1006700070088000E80A803083162006F000803081
:10068000013A7002031C4D2B8030063AF000803096
:1006900020067002031C4D2B552B83126808840022
:1006A0002E308000E80A0130EF0083120630EA00A5
:1006B0006A08003A0319B72BEE016B08F0006C08CA
:1006C000F1006D08F2006E08F300F00DF10DF20D6F
:1006D000F30D7010F00DF10DF20DF30D70106B08AD
:1006E000F0076C0803186C0FF1076D0803186D0F05
:1006F000F2076E0803186E0FF3077008EB0071081D
:10070000EC007208ED007308EE006B08F0006C0856
:10071000F1006D08F2006E08F300F00DF10DF20D1E
:10072000F30D70107008EB007108EC007208ED001A
:100730007308EE006E08303EF00068088400700810
:100740008000E80A6F08003A031DB42B8316A0034B
:100750002008003A031DB42B8312680884002E3051
:100760008000E80A0130EF008312EA03582BFF30C3
:10077000680784000008303A031DC02BE803B72B3C
:10078000FF306807840000082E3A031DC82BE803D9
:1007900083162008003A03190E2C8312680884007F
:1007A00065308000E80A803083162006F000803033
:1007B000003A70020318E62B8312680884002D307B
:1007C0008000E80A83162008003CA000200883125D
:1007D000EA008030093AF00080308316200670026B
:1007E0000318FF2B0A30F40083126A08F000A721D7
:1007F0003030F0076808840070088000E80A83122F
:100800000A30F4006A08F000A7217808F0003030C0
:10081000F0076808840070088000E80A83126808FE
:0808200084008001F0010800D2
:10082800262C803083120313E400392CC030E400F6
:10083800392C9430E400392CD430E400392C803041
:10084800E400392C831203136408013A0319152CA8
:100858006408023A03191A2C6408033A03191D2C78
:100868006408043A0319202C232C6503F00064085B
:10087800F0077008E40070088316A3001A205510CA
:10088800E70167086607840000080319542C670805
:100898006607840000088316A100F320E70A452CA8
:0408A80055140800DB
:1008AC00C330831203139F05C0309F006408F0000F
:1008BC00F00D7010F00D701070089F043809F000E6
:1008CC00700883169F059F1783121F14EB209F142B
:1008DC009F1C722C00006E2C1F101E08F100F001E2
:0C08EC0083161E08F0040030F104080020
:1008F800831203137008F8007108F000F101F20187
:10090800F301FB01FC019630F300FA017008F100D5
:0C0918007808F000F801F2011721080037
:10092400FF3083120313D600FF30D700FF30D80006
:10093400FF30C3309F05C0309F003809F0007008B5
:0C09440083169F059F1783121F140800E4
:1009500094208A110A128000840AD30A0319D40A47
:08096000F003031DA82C0800A0
:1009680083160313861206120610861006118611C6
:1009780083128612061286110611861006100A20A6
:100988000A200A20861406148616172086120A20C2
:100998008616172086120A208616172086120A2025
:1009A80006108616172086120A2086161720861229
:1009B800861086158616172086120A2086110614B8
:1009C80086161720861206108616172086120A2009
:1009D80086161720861206148616172086120A20F5
:1009E8000610861617208612861506158614061414
:0C09F8008616172086120A2055140800ED
:100A0400042601308316031788008901013003137B
:100A14008500B424922401308316A3001A200C30DC
:100A24008316A3001A200130E4000330E5002830C7
:100A3400E60014240230E4000330E5002130E6002F
:100A440014241530FB004B30FC00BE30FD00FD0BC0
:100A5400292DFC0B292DFB0B292D000001308316B9
:100A6400A3001A200C308316A3001A20E401562494
:100A74007C247008E0007108E1007208E200730849
:100A8400E3000A30F4002830F5002030F600773017
:100A9400F70046210030F4000030F5004830F6003D
:100AA4008530F70046217008E0007108E100720803
:100AB400E2007308E3007008E4007108E5007208BE
:100AC400E6007308E7005930E800F8210230831289
:100AD4000313E4000130E5005930E6001424023029
:100AE400E4000730E5003F30E60014246008F40019
:100AF4006108F5006208F6006308F7000030F000B2
:100B04000030F1002030F2008430F3009B200130EB
:100B140003180030F00070080319992D05150130F1
:100B2400E4000130E5004A30E6001424A12D05114B
:100B34000130E4000130E5004130E600142460088F
:100B4400F4006108F5006208F6006308F70000305D
:100B5400F0000030F1002030F2008430F3009B20DC
:100B6400013003180030F00070080319BB2D851103
:100B7400BC2D85150630FB001330FC00AD30FD00A4
:100B8400FD0BC22DFC0BC22DFB0BC22D000000007F
:040B9400382DCB2D00
:100C080021308400323083120313F000D130D30036
:080C18000530D400A8240800F7
:0E0BA200533465346E3473346F34723400345F
:100BB000543465346D347034653472346134743453
:080BC000753472346534003411
:080BC8004E3461344E34003458
:020BD0003034BF
:040BD2003034003487
:080BD60049344E34463400346A
:040BDE004334003468
:100BE200463461346E343A3420344F344634463419
:020BF2000034CD
:100BF400463461346E343A3420344F344E34203425
:020C04000034BA
:04400E00F22F000786
:00000001FF
