:02000000492A8B
:0E000600213083120313FD00FD0B07280800B4
:100014000F3083120313FC004730FD00FD0B102842
:0A002400FC0B10280000000008008B
:06002E00000000000800C4
:1000340083160313A41B21288312861123288312F9
:1000440086158316241B2928831206112B28831254
:1000540006158316A41A31288312861033288312B6
:1000640086148316241A3928831206103B28831217
:1000740006146D183F280616402806128616172007
:1000840086128316A4194928831286114B288312D9
:1000940086158316241951288312061153288312B6
:1000A40006158316A4185928831286105B28831218
:1000B4008614831624186128831206106328831279
:1000C40006146D1867280616682806128616172067
:0E00D40086126D1C6F280A2070280320080079
:1000E20083160313A401A601A7011030A80004304F
:1000F20027020318A628F030831288008030F0000F
:100102007008083E840083162809F00070088000F9
:10011200172017200F3083120805F000700883168D
:10012200A50070080319A0282608A40025080319B1
:100132009E28A50CA513A40A97280430A700A80D91
:1001420028100430A607A70A78282408F00008001F
:10015200063083120313FD00FD0BAD2800000800DA
:1001620071207008A3000F3083120805F0000319F4
:0E017200BC28A920B42883162308F00008003A
:0E018000831203136A088A00690882000800CF
:10018E00831203136D1083162308A4001A206D1416
:02019E00080057
:1001A000E228803083160313A000F528C030A00099
:1001B000F5289430A000F528D430A000F528803030
:1001C000A000F528831603132008013A0319D1284B
:1001D0002008023A0319D6282008033A0319D9281F
:1001E0002008043A0319DC28DF282103F000200846
:1001F000F0077008A00083126D1470088316A40025
:100200001A206D1083162208A4001A206D1408000D
:100210001A29803083160313A0002D29C030A000B6
:100220002D299430A0002D29D430A0002D29803014
:10023000A0002D29831603132008013A0319092968
:100240002008023A03190E292008033A031911293C
:100250002008043A0319142917292103F000200863
:10026000F0077008A0007008A4001A206D10EF01BC
:100270006F08831622078400000803194929831296
:100280006F088316220784000008A300C720EF0A26
:08029000382983126D140800E7
:10029800B12070088312A000700803194C29A42902
:1002A8003730F0000030F100E4293830F000003039
:1002B800F100E4293930F0000030F100E429413040
:1002C800F0000030F100E4293430F0000030F10093
:1002D800E4293530F0000030F100E4293630F00030
:1002E8000030F100E4294230F0000030F100E42948
:1002F8003130F0000030F100E4293230F0000030F5
:10030800F100E4293330F0000030F100E4294330F3
:10031800F0000030F100E4292A30F0000030F1004C
:10032800E4293030F0000030F100E4292330F000F7
:100338000030F100E4294430F0000030F100E429F5
:100348002008013A031954292008023A03195929A7
:100358002008033A03195E292008043A031963297F
:100368002008053A031968292008063A03196D2957
:100378002008073A031972292008083A031977292F
:100388002008093A03197C2920080A3A0319812907
:1003980020080B3A0319862920080C3A03198B29DF
:1003A80020080D3A0319902920080E3A03199529B7
:1003B80020080F3A03199A292008103A03199F298F
:0203C80008002B
:1003CA00803083120313F0007008083E8400FF3067
:0403DA008000080097
:1003DE00C0208A110A128000840AE90A0319EA0A67
:0803EE00F003031DEF290800D4
:1003F600831603138612061206108610061186113E
:1004060083128612061286110611861006100A201D
:100416000A200A20861406148616172086120A2039
:100426008616172086120A208616172086120A209C
:1004360006108616172086120A20861617208612A0
:10044600861086158616172086120A20861106142F
:1004560086161720861206108616172086120A2080
:1004660086161720861206148616172086120A206C
:10047600061086161720861286150615861406148B
:0C0486008616172086120A206D1408004C
:100492005624E5218316031788018901FB210130C7
:1004A2008316A4001A200C308316A4001A20831687
:1004B20087018312870180302206F00080307002AB
:1004C200031D652A0230210203187F2A4C21831260
:1004D20003137008EE0021086B3E84007008800050
:1004E20001308316A0000130A10083126E0883162A
:1004F200A200D020A10A0319A20A5C2A6B08383A8A
:10050200031D882A6C08393A031D882A922A6B082F
:10051200393A031D912A6C08383A031D912A922A0E
:10052200DE2A01308316A0000130A1005E30A20055
:1005320008218030F00080305D067002031DA32A7E
:100542005C08033C0318A72ADC01DD0180305D064C
:10055200F00080307002031DB02A00305C02031CE0
:10056200DD2A8030F00080305D067002031DBB2A58
:100572005C08033C031CDD2A0630FB001330FC0040
:10058200AD30FD00FD0BC32AFC0BC32AFB0BC32AB3
:100592000000000001308316A0000F30A10083127A
:1005A2005C08523E840000088316A200D0205C083A
:1005B2002E3E840000088700032C6B08353A031D89
:1005C200E72A6C08383A031DE72AF12A6B08383A01
:1005D200031DF02A6C08353A031DF02AF12A3F2B3D
:1005E20001308316A0000130A1002330A2000821AF
:1005F2008030F00080305D067002031D022B5C0823
:10060200053C0318082B0330DC000030DD0080308D
:100612005D06F00080307002031D112B03305C0276
:10062200031C3E2B8030F00080305D067002031DFB
:100632001C2B5C08053C031C3E2B0630FB001330D0
:10064200FC00AD30FD00FD0B242BFC0B242BFB0B1F
:10065200242B0000000001308316A0000F30A100FF
:1006620083125C08523E840000088316A200D02048
:100672005C082E3E840000088700032C6B08393A80
:10068200031D482B6C08353A031D482B522B6B086F
:10069200353A031D512B6C08393A031D512B522B4D
:1006A200972B01308316A0000130A1003830A20040
:1006B200082180305D06F00080307002031D632B3C
:1006C20006305C02031C712B8030F00080305D0626
:1006D2007002031D6E2B5C08083C031C712B762BE9
:1006E2000630DC000030DD00962B0630FB001330B4
:1006F200FC00AD30FD00FD0B7C2BFC0B7C2BFB0BBF
:100702007C2B0000000001308316A0000F30A100F6
:1007120083125C08523E840000088316A200D02097
:100722005C082E3E840000088700032C6B08363AD2
:10073200031DA02B6C08383A031DA02BAA2B6B08B3
:10074200363A031DA92B6C08383A031DA92BAA2B94
:10075200032C01308316A0000130A1004630A20014
:10076200082180305D06F00080307002031DBB2B33
:1007720007305C02031CC92B8030F00080305D061C
:100782007002031DC62B5C08093C031CC92BCD2B30
:100792000630DC000030DD0080305D06F000803085
:1007A2007002031DD62B07305C02031C032C803021
:1007B200F00080305D067002031DE12B5C08083CEE
:1007C200031C032C0630FB001330FC00AD30FD008F
:1007D200FD0BE92BFC0BE92BFB0BE92B00000000C6
:1007E20001308316A0000F30A10083125C08523E34
:1007F200840000088316A200D0205C082E3E8400EC
:0E08020000088700DC0A0319DD0A5C2A072CB7
:1008AC0020308400493083120313F0000D30E9002E
:0808BC000430EA00EF210800FE
:02081A000034A8
:04081C000034003470
:10082000443461346F342034263420345A3445340F
:0608300043343A340034A9
:100836003F3406345B344F3466346D347D340734CC
:040846007F346F3458
:10084A0041344C34553454344534593449342034C1
:0C085A002634203444344134303400345F
:100866004234413455344C34553420342634203403
:080876005A34453443340034C8
:10087E00303431343234333434343534363437342E
:04088E00383439348D
:0408920000340034FA
:100896005A344534433420342634203441344C34DD
:0608A60055343A34003421
:04400E00F22F000786
:00000001FF
