:020000000328D3
:1000060083120313A201A3010130A4000030A5004E
:10001600831686018312220886001A30FC00F83007
:10002600FD00FD0B1428FC0B1428000024082207F1
:10003600F10023080318013E2507F2007108A2000B
:100046007208A30000307206031D2B280F307106BC
:10005600031D3228FF30A400FF30A5003E280030E3
:100066002306031D382800302206031D3E280130D2
:0A007600A4000030A5000D283F286B
:04400E00F22F000786
:00000001FF
