:040000008A15E32A50
:0E000600F201F101F001F801F30100300800F1
:100014007B15FB1F14280130F300F201F101F001FC
:08002400FA0DF20CFF30080098
:08002C00FA1FF2130030080076
:10003400FB14FB1F2428FF30F300F200F100F00052
:08004400FA0DF20CFF30080078
:10004C00FB09FA09F909F809F80A0319F90A03195D
:08005C00FA0A0319FB0A08006F
:060064000000000008008E
:10006A00A1017208031D4A287108F2007008F10004
:10007A00F001A1157208031D4A287108F200F10166
:10008A00A11121167208031958282108F302031D29
:10009A00031C5C280310F21B6028F00DF10DF20D11
:1000AA00F30B50285C280130FC000320632802303F
:0E00BA00FC000A2063280430FC001620080019
:1000C8007408F8027508031C750FF9027608031CFA
:1000D800760FFA027708031C770FFB02F30D07303F
:1000E800FC00730DF80DF90DFA0DFB0D7408731C67
:1000F8008B28F8027508031C750FF9027608031C93
:10010800760FFA027708031C770FFB029828F80786
:1001180075080318750FF90776080318760FFA079C
:1001280077080318770FFB07F30DFC0B7528720D82
:10013800F80DF90DFA0DFB0D7408731CB128F802BF
:100148007508031C750FF9027608031C760FFA026E
:100158007708031C770FFB02BE28F80775080318F9
:10016800750FF90776080318760FFA07770803184A
:10017800770FFB07F20D0730FC00720DF80DF90D33
:10018800FA0DFB0D7408721CD728F8027508031CB9
:10019800750FF9027608031C760FFA027708031C1C
:1001A800770FFB02E428F80775080318750FF9079D
:1001B80076080318760FFA0777080318770FFB07F6
:1001C800F20DFC0BC128710DF80DF90DFA0DFB0DA0
:1001D8007408721CFD28F8027508031C750FF902D3
:1001E8007608031C760FFA027708031C770FFB02C8
:1001F8000A29F80775080318750FF9077608031810
:10020800760FFA0777080318770FFB07F10D073009
:10021800FC00710DF80DF90DFA0DFB0D7408711C39
:100228002329F8027508031C750FF9027608031CC8
:10023800760FFA027708031C770FFB023029F807BC
:1002480075080318750FF90776080318760FFA076B
:1002580077080318770FFB07F10DFC0B0D29700DBC
:10026800F80DF90DFA0DFB0D7408711C4929F802F7
:100278007508031C750FF9027608031C760FFA023D
:100288007708031C770FFB025629F807750803182F
:10029800750FF90776080318760FFA077708031819
:1002A800770FFB07F00D0730FC00700DF80DF90D06
:1002B800FA0DFB0D7408701C6F29F8027508031CF1
:1002C800750FF9027608031C760FFA027708031CEB
:1002D800770FFB027C29F80775080318750FF907D3
:1002E80076080318760FFA0777080318770FFB07C5
:1002F800F00DFC0B592970188F297408F807750838
:100308000318750FF90776080318760FFA077708A8
:080318000318770FFB07080032
:0E032000213083120313FD00FD0B9429080009
:10032E000F3083120313FC004730FD00FD0B9D2997
:0A033E00FC0B9D29000000000800E0
:100348007C18DA29FC18AB297C19F929A429A10100
:100358007208031DCB297108F2007008F1007808B3
:10036800F000F801A1157208031DCB297108F200ED
:100378007008F100F001A11121167208031DCB29A4
:100388007108F200F101A11572080319ED2921087D
:10039800F302031D031CF1290310F21BDA29F80DDF
:1003A800F00DF10DF20DF30BD129F1297B1B701C17
:1003B800F529F81FF529F00A0319F10A0319F20AB9
:1003C800031DF529F20CF10CF00CF30A0319F929B5
:1003D800F5290130FC000320FC290230FC000A202A
:1003E800FC290430FC001620FC290830FC001A20E7
:0403F80000000800F9
:1003FC0083160313CE1B052A83128611072A831238
:10040C00861583164E1B0D2A831206110F2A831292
:10041C0006158316CE1A152A83128610172A8312F4
:10042C00861483164E1A1D2A831206101F2A831255
:10043C0006145218232A0616242A0612861632206F
:10044C0086128316CE192D2A831286112F2A831217
:10045C00861583164E19352A83120611372A8312F4
:10046C0006158316CE183D2A831286103F2A831256
:10047C00861483164E18452A83120610472A8312B7
:10048C00061452184B2A06164C2A061286163220CF
:0E049C008612521C532A9721542A90210800E0
:1004AA00831203137408003A031D702A7508003A70
:1004BA00031D702A7608003A031D702A7708003A4D
:1004CA00031D702AFF30F000FF30F100FF30F20008
:1004DA007F30F300092B83120313FC01F71BFC0A7C
:1004EA00FD01FB01FA01F901F801730872047104B4
:1004FA0070040319042B73087706A000A01BFD09DA
:10050A00F71F922AF409F509F609F709F40A0319FB
:10051A00F50A0319F60A0319F70AF31F9F2AF009C5
:10052A00F109F209F309F00A0319F10A0319F20AA7
:10053A000319F30A73087704A000A01BC02A6420D9
:10054A00FC1BDD2AFD1F042BF009F109F209F3094E
:10055A00F00A0319F10A0319F20A0319F30AF8094E
:10056A00F909FA09FB09F80A0319F90A0319FA0A37
:10057A000319FB0A042BF71FD72AF31BD12A730886
:10058A00FB007208FA007108F9007008F800F3011C
:10059A00F201F101F001A72AF301F201F101F001E0
:1005AA00F00A0034F309F209F109F009FC17A42A48
:1005BA00F80A0319F90A0319FA0A0319FB0A740853
:1005CA007802031DA72A75087902031DA72A76084F
:1005DA007A02031DA72A77087B02031DA72AFB01BB
:1005EA00FA01F901F801F00A0319F10A0319F20AEA
:1005FA000319F30AF31FA72AA0012016FF34A0014A
:0A060A007C1C082B2620003E08008F
:100614008312031372087606A100F801F901730826
:100624007702031C2D2B7708FD007308F7007D0863
:10063400F3007608FD007208F6007D08F2007508E4
:10064400FD007108F5007D08F1007408FD007008D4
:10065400F4007D08F00077080319A62B7208FA004D
:10066400F217F61777087302F7000319602B0830A6
:100674007702031C562BF7007408F9007508F40080
:100684007608F500F60108307702031C562BF700B4
:100694007408F9007508F400F50108307702031CAA
:1006A400562B7A08F200A62B77080319602B031047
:1006B400F60CF50CF40CF90CF70B592BA11F6D2B50
:1006C400F909F409F509F609F90A0319F40A0319F1
:1006D400F50A0319F60A7908F80774080318740F61
:1006E400F00775080318750FF10776080318760FDD
:1006F400F207A11B862B031C962BF20CF10CF00CB9
:10070400F80CF30F962BA22B03189A2BF809F00977
:10071400F109F209F80A0319F00A0319F10A031995
:10072400F20A8030FA069E2B0130FC00A421A82B8B
:100734000230FC00A421A82B0430FC003520A82B97
:100744000830FC001A20A82B0030FC000000080030
:100754007B14FB1FB52BF201FA1FFF30F200F100EE
:0A076400F000FA0DF20CFF3008005F
:10076E00831203137008F8007108F0007208F1008C
:10077E007308F200F301FB01FC019E30F300FA0155
:10078E00F21FD52BF809F009F109F209F80A03193D
:10079E00F00A0319F10A0319F20AFA170230FC00E3
:0407AE00A42108007A
:1007B20083160313CB01CC0101304902CB00003078
:1007C200031C013E4A02CC0080304C06F00080300F
:1007D20048067002031DEF2B47084B02031C2F2C07
:1007E2004B0846078312EF000A30F400F501F601C8
:1007F200F70183164208F0004308F1004408F200B2
:100802004508F30055227808F0007908F1007A08CB
:10081200F2007B08F3003030F0076F0884007008A4
:1008220080000A30F400F501F601F7018316420850
:10083200F0004308F1004408F2004508F300552295
:1008420070088316C2007108C3007208C4007308DE
:0E085200C5000130CB02031CCC03E52B0800CF
:1008600083120313FB01FC01F80173080319A82C80
:100870007208FA00F2179E30F302F31F982CF30966
:10088000F30A08307302031C6D2CF300F80D700896
:10089000F8007108F0007208F100F20108307302EC
:1008A000031C6D2CF300F80D7008F8007108F000BF
:1008B000F10108307302031C6D2CF300F80D700871
:1008C000F800F00108307302031C6D2CF300F80DE2
:1008D000F8017308031D0310772C73080319772C94
:1008E0000310F20CF10CF00CF80CF30B702C7B1BCA
:1008F000781C852C031C852CF80A0319F00A0319AF
:10090000F10A0319F20AF21BA52CFA1FA82CF2090E
:10091000F109F009F809F80A0319F00A0319F10AB4
:100920000319F20AA82CF201F101F001F801A82C38
:100930007B14FB1FAB2CF201FA1FAB2CF200F10071
:10094000F000F800FA0DF20CAB2C0130FC00AD2CDD
:100950000030FC00AD2CFF30FC00FC080319B12C6A
:10096000AA237208F3007108F2007008F1007808F9
:04097000F00008008B
:1009740083120313FB017308031D77080319112D58
:1009840072087606FA007708F3077E30031CCE2C33
:10099400F3020318142DD12CF302031C172D720833
:1009A400F8007108FC007008FD00F817F617031032
:1009B400F201F101F0011830A1007D1CEB2C740848
:1009C400F00775080318750FF10776080318760FFA
:1009D400F207F20CF10CF00CF80CFC0CFD0C0310FB
:1009E400A10BDF2CF21BFB2CF80DF00DF10DF20D19
:1009F400F3037B1B701C0D2DF81F0D2DF00A03193A
:100A0400F10A0319F20A031D0D2DF20CF10CF00C7E
:100A1400F30A0319142DFA1FF2130030192D0130B3
:100A24000320192D02301A20192D04300A20000049
:020A34000800B8
:100A36008312031352106F088316CE00FE21521440
:020A46000800A6
:100A4800063083120313FD00FD0B282D000008005B
:100A580083160313CA01CB01CC01CD010A30F4007F
:100A6800F501F601F7014208F0004308F1004408D7
:100A7800F2004508F300552270088316C600710875
:100A8800C7007208C8007308C9000130CA00CB014A
:100A9800CC01CD010030F0004906031D5D2D700822
:100AA8004806031D5D2D70084706031D5D2D460889
:100AB800003A03198E2D0A30F400F501F601F7010A
:100AC8004608F0004708F1004808F2004908F3001A
:100AD800552270088316C6007108C7007208C8003E
:100AE8007308C9004A08F0004B08F1004C08F200EE
:100AF8004D08F300F00A0319F10A0319F20A031961
:100B0800F30A7008CA007108CB007208CC00730899
:100B1800CD004E2D4A08F0004B08F1004C08F200B9
:060B28004D08F300080077
:0C0B2E00831203138030F6060A2308002F
:100B3A0083120313EF018316C301C4011030C500E9
:100B4A00043044020318D72DF03083128800803015
:100B5A00F0007008083E840083164509F00070080A
:100B6A008000322032200F3083120805F00070080E
:100B7A008316C20070080319D12D43088312EF00AF
:100B8A00831642080319CE2DC20CC2138312EF0A30
:100B9A00C52D04308316C400C50D45100430C307A3
:0C0BAA00C40AA52D83126F08F00008009B
:060BB600FB15FF300800F2
:100BBC0083120313FA017308031D7A147708031DBB
:100BCC00FA147A0803192A2E033A0319F52D7A1808
:100BDC00F22DF61F282E262EF21F262E282E7208F6
:100BEC008039FA00F21376088039F6137A06031965
:100BFC00032E7A080319262E282E77087302031960
:100C0C000A2E031C1E2E222E760872020319112E98
:100C1C00031C1E2E222E750871020319182E031C9C
:100C2C001E2E222E7408700203192A2E0318222E4F
:100C3C00FA080319282E262EFA080319262E282E18
:100C4C00031408000310080003140315080008001F
:100C5C00831203136B08F0006C08F1006D08F200AE
:100C6C006E08F3000030F4000030F5004830F60058
:100C7C008530F700BA24302470088316A000710860
:100C8C00A1007208A2007308A30030308312BC00CC
:100C9C002E30BD000A30F400F501F601F701831681
:100CAC002008F0002108F1002208F2002308F300CC
:100CBC0055227808F0007908F1007A08F2007B08D8
:100CCC00F30030307007BF000A30F400F501F60174
:100CDC00F70183162008F0002108F1002208F20029
:100CEC002308F30055220A30F400F501F601F70150
:100CFC0055227808F0007908F1007A08F2007B0898
:0A0D0C00F30030307007BE0008004D
:100D160083160313BE01BF01C001C10183126B0814
:100D2600F0006C08F1006D08F2006E08F300302444
:100D360070088316A0007108A1007208A20073084B
:100D4600A3007008C2007108C3007208C4007308CB
:100D5600C5002C257008A4007108A5002008F00025
:100D66002108F1002208F2002308F300B7237008D7
:100D7600F4007108F5007208F6007308F7006B08B6
:100D8600F0006C08F1006D08F2006E08F30097257C
:100D96000030F4000030F5004830F6008530F700EA
:100DA600BA24302470088316BA007108BB00720892
:100DB600BC007308BD007008C2007108C300720849
:100DC600C4007308C5002C257008BE007108BF005A
:100DD60080304106F00080307002031DF42E14307E
:100DE60040020318FE2E4008A63E84008001C00A79
:100DF6000319C10AEB2E2008C2002108C3002208ED
:100E0600C4002308C500A630C600C701C8012408CF
:100E1600C9002508CA00D9232408A63E84002E301E
:100E260080003A08C2003B08C3003C08C4003D08E5
:100E3600C500A630C6002408013EC70000300318CE
:100E4600013E2507C8003E082407C90025080318E7
:100E5600013E3F07CA00C90A0319CA0AD923C001BD
:100E6600C10180304106F00080307002031D3D2F25
:100E76001430400203184F2F40083C3EF100400852
:100E8600A63E84000008F000710884007008800007
:0A0E9600C00A0319C10A342F080036
:100EA000622F803083120313EB00752FC030EB00EC
:100EB000752F9430EB00752FD430EB00752F8030F8
:100EC000EB00752F831203136B08013A0319512F9E
:100ED0006B08023A0319562F6B08033A0319592F6E
:100EE0006B08043A03195C2F5F2F6C03F0006B084A
:100EF000F0077008EB0070088316CE00FE21521038
:100F0000EE016E086D078400000803198F2F6E082C
:100F10006D0784000008EF001B25EE0A812F521494
:020F20000800C7
:100F22003F3083160313A0000030A1000630A20058
:100F32000030A3005B30A4000030A5004F30A600B3
:100F42000030A7006630A8000030A9006D30AA006A
:100F52000030AB007D30AC000030AD000730AE0099
:100F62000030AF007F30B0000030B1006F30B2000F
:100F72000030B30083126B08F0006C08F100F00D32
:100F8200F10D70107008A03E840000088700080070
:100F92009D257008EB000F300805F0000319D32FD0
:0A0FA2002425CC2F6B08F000080096
:0E0FAC008312031351088A00500882000800C7
:100FBA00831203137008F8007108F000F101F201BE
:100FCA00F301FB01FC019630F300FA01F01FF32F45
:100FDA00F809F009F80A0319F00AFA177008F1007B
:0C0FEA007808F000F801F2013520080042
:1010000083120313FB01FA01F9018030F800F10C9F
:10101000F00C031C14287408F90775080318750FE1
:10102000FA070318FB0A0310F01F1C287408FA07BC
:1010300075080318750FFB07FB0CFA0CF90CF80C7C
:10104000031C07287B08F3007A08F2007908F100F6
:061050007808F000080022
:101056003030831203136702031C36286708393CB5
:10106600031C36284B286708413A03194B286708A2
:10107600423A03194B286708433A03194B28670875
:10108600443A03194B286708233A03194B28932837
:101096006708413A031D55282F30EF008A111B259A
:1010A6008A1593286708423A031D5F282A30EF0005
:1010B6008A111B258A1593286708433A031D692858
:1010C6002D30EF008A111B258A1593286708443AAC
:1010D600031D73282B30EF008A111B258A159328D0
:1010E6006708233A031D7D283D30EF008A111B2532
:1010F6008A15932830306702031C93286708393C09
:10110600031C93286708EF008A111B258A153030C7
:101116006702EB00EC01031CEC038A1191278A1588
:021126000800BF
:10112800003083120313F4000030F5000030F6009D
:101138007F30F7006708F0006808F1006908F200DE
:101148006A08F3008A11DE258A1501300318003079
:10115800F00070080319BC286708EB006808EC0069
:101168006908ED006A08EE008A112E268A15C7283C
:101178006708EB006808EC006908ED006A08EE00F3
:101188008A118B268A1502308312EB000130EC009D
:0C1198003C30ED008A1150278A15080039
:1011A4008312031373087706031DE5287208760675
:1011B400031DE52871087506031DE52870087406EB
:0C11C400031903150800031108000800BF
:1011D0008A11C9278A157008E70070080319E828E2
:1011E00021293130E70061293230E70061293330AD
:1011F000E70061294130E70061293430E7006129C7
:101200003530E70061293630E70061294230E700D8
:1012100061293730E70061293830E700612939302A
:10122000E70061294330E70061292A30E70061299E
:101230003030E70061292330E70061294430E700BE
:1012400061296708013A0319F1286708023A03196E
:10125000F4286708033A0319F7286708043A0319C2
:10126000FA286708053A0319FD286708063A0319A2
:1012700000296708073A031903296708083A031980
:1012800006296708093A0319092967080A3A031960
:101290000C2967080B3A03190F2967080C3A031940
:1012A000122967080D3A0319152967080E3A031920
:1012B000182967080F3A03191B296708103A031900
:0812C0001E296708F000080078
:1012C80083120313E701E80180306806F0008030DC
:1012D8007002031D71290630670203187B2967080D
:1012E800363E84008001E70A0319E80A6829E70105
:1012F800E80180306806F00080307002031D8629FE
:10130800143067020318902967083C3E8400800166
:0A131800E70A0319E80A7D2908001E
:101322008316031386120612061086100611861102
:1013320083128612061286110611861006108A1171
:1013420097218A158A1197218A158A1197218A1560
:101352008614061486168A1132208A1586128A117C
:1013620097218A1586168A1132208A1586128A11C9
:1013720097218A1586168A1132208A1586128A11B9
:1013820097218A15061086168A1132208A1586122E
:101392008A1197218A1586168A1132208A15861299
:1013A2008610861586168A1132208A1586128A11AF
:1013B20097218A158611061486168A1132208A15FB
:1013C2008612061086168A1132208A1586128A1112
:1013D20097218A1586168A1132208A1586120614DA
:1013E20086168A1132208A1586128A1197218A1549
:1013F200061086168A1132208A158612861506155F
:101402008614061486168A1132208A1586128A11CB
:0814120097218A15521408000D
:10141A00803083120313F0007008083E8400FF3006
:04142A008000080036
:10142E00831203137408003A031D322A7508003A1A
:10143E00031D322A7608003A031D322A7708003A35
:10144E00031D322AFF30F000FF30F1007F30F20032
:10145E00FF30F300D52A8312031377080319C12A2C
:10146E0073080319C62A720876068039FA00F21735
:10147E00F617A1017208F8007108FC007008FD0053
:10148E007408FD027508031C750FFC027608031C18
:10149E00760FF802F801FC01FD01031C5D2A031012
:1014AE00F20CF10CF00CF80C0130A1007708F302ED
:1014BE00031C672A7E302107F3070318CB2A6C2AF8
:1014CE007E302107F307031CD02A1830FA07FD0DD2
:1014DE00FC0DF80DF00DF10DF20DA10D7408F002DA
:1014EE007508031C750FF1027608031C760FF202C5
:1014FE00760DA104211C852A7D14902A7408F0070C
:10150E0075080318750FF10776080318760AF207A7
:10151E007D10FA031F307A05031D6E2A7B1B7D1C7E
:10152E00B72A0310F00DF10DF20DA10D7408F002A3
:10153E007508031C750FF1027608031C760FF20274
:10154E00760D21040139FD070318FC0A0319F80A68
:10155E00031DB72AF80CFC0CFD0CF30A0319CB2A59
:10156E00FA1FF8137808F2007C08F1007D08F000ED
:10157E000030D42A01308A11DB258A15D42A023094
:10158E008A1103208A15D42A04308A111A208A154A
:0E159E00D42A08308A110A208A15000008009D
:1015AC008A11D6278A150A128000840AD00A0319D8
:0A15BC00D10AF003031DD62A08002F
:1015C60083120313A2014330A3004130A4004C3020
:1015D600A5004330A6005530A7004C30A800413086
:1015E600A9005430AA004F30AB005230AC00AD0118
:1015F6004930AE004E30AF004930B0004630B10041
:101606004930B2005430B3005930B400B501DF019F
:10161600E001E101E2010D22831603178801890129
:1016260003138701912101308316CE008A11FE2112
:101636008A150C308316CE008A11FE218A150130D8
:10164600EB000130EC002330ED008A1150278A159B
:101656000230EB000130EC002230ED008A115027F9
:101666008A15FF30870064210630FB001330FC002A
:10167600AD30FD00FD0B3D2BFC0B3D2BFB0B3D2B3D
:101686000000000001308316CE008A11FE218A1563
:10169600E8207008E10080306006F0008030003AF3
:1016A6007002031D582B07305F02031C5B2B4B2B6C
:1016B60030306102031C6B2B6108393C031C6B2B19
:1016C6005F08363E840061088000DF0A0319E00ADD
:1016D60041306102031C752B6108443C031C752BC9
:1016E6006108E2006108E7002B2061082A3A031D21
:1016F600B12B8030F000803060067002031D852B10
:101706005F08003C031C8A2BDF01E001B12B30305F
:101716006102031C9B2B6108393C031C9B2B5F0851
:10172600363E840080010130DF02031CE0039C2B5F
:10173600E20110308316CE008A11FE218A1531305F
:10174600EF008A111B258A15E8207008E100103089
:101756008316CE008A11FE218A15782B6108233A5A
:10176600031D902D30303602F000F101031CF10309
:101776006430F4000030F50000207008E3007108C2
:10178600E40030303702F000F101031CF1030A30A7
:10179600F4000030F500002070086307F2006408CA
:1017A6000318013E7107F30030303802F000F101F2
:1017B600031CF1037208F00773080318013EF107D2
:1017C6008A11DD278A157008D3007108D4007208C3
:1017D600D5007308D60030303902F000F101031C41
:1017E600F1038A11DD278A150030F4000030F50078
:1017F6004830F6008530F7008A11BA248A15700839
:10180600E3007108E4007208E5007308E600303072
:101816003A02F000F101031CF1030A30F400003033
:10182600F50000208A11DD278A156308F400640894
:10183600F5006508F6006608F7008A110A238A157E
:101846007008E3007108E4007208E5007308E6001A
:1018560030303B02F000F101031CF1038A11DD2751
:101866008A156308F4006408F5006508F600660842
:10187600F7008A110A238A157008D7007108D80064
:101886007208D9007308DA003A08003A031D5D2C85
:1018960030303902F000F101031CF1038A11DD2713
:1018A6008A157008D7007108D8007208D900730825
:1018B600DA009E2C3B08003A031D9E2C303039027C
:1018C600F000F101031CF1038A11DD278A150030AF
:1018D600F4000030F5004830F6008530F7008A1134
:1018E600BA248A157008E3007108E4007208E5005E
:1018F6007308E60030303A02F000F101031CF103F0
:101906000A30F4000030F50000208A11DD278A1520
:101916006308F4006408F5006508F6006608F70039
:101926008A110A238A157008D7007108D800720830
:10193600D9007308DA0030303902F000F101031CD7
:10194600F1036430F4000030F50000200030710629
:10195600031DAF2C00307006031DB52CD701D8012E
:10196600D901DA016208413A031D102DF401F5018F
:10197600F601F7015708F0005808F1005908F2007F
:101986005A08F300D2200130031D0030F000700821
:101996000319F62C642101308316CE008A11FE212C
:1019A6008A15DF01E001E201E1010130EB000130BF
:1019B600EC002E30ED008A1150278A150B30FB0003
:1019C6002630FC005D30FD00FD0BE72CFC0BE72C00
:1019D600FB0BE72C0000000001308316CE008A11B5
:1019E600FE218A154B2B5708F4005808F5005908B4
:1019F600F6005A08F7005308F0005408F10055089D
:101A0600F2005608F30017227008DB007108DC00AC
:101A16007208DD007308DE006F2D6208423A031D6E
:101A2600302D5308F0005408F1005508F20056080E
:101A3600F3005708F4005808F5005908F6005A084C
:101A4600F7008A11BA248A157008DB007108DC00D9
:101A56007208DD007308DE006F2D6208433A031D2D
:101A6600502D5708F4005808F5005908F6005A0892
:101A7600F7005308F0005408F1005508F200560824
:101A8600F3008A1197258A157008DB007108DC00BF
:101A96007208DD007308DE006F2D6208443A031DEC
:101AA6006F2D5308F0005408F1005508F20056084F
:101AB600F3005708F4005808F5005908F6005A08CC
:101AC600F7008A110A238A157008DB007108DC000A
:101AD6007208DD007308DE005B08E7005C08E800BA
:101AE6005D08E9005E08EA0094201530FB004B30E3
:101AF600FC00BE30FD00FD0B7E2DFC0B7E2DFB0B8E
:101B06007E2D0000642101308316CE008A11FE214D
:0E1B16008A15DF01E001E201E1014B2B912D68
:04400E00F22F000786
:00000001FF
