:020000000328D3
:10000600F0308316031386008801031789018801DF
:100016008312031306140616061E132806308800DC
:100026008616861E1828663088000617061F1D28A5
:1000360007308800061086140616061E24285B3034
:1000460088008616861E29286D3088000617061F2A
:100056002E287F3088008617861F33283F30880079
:1000660086100615061E39284F308800861E3D2844
:100076007D308800061F41280730880006110B28AE
:0200860043280D
:04400E00F22F000786
:00000001FF
