:020000000B2AC9
:06000600000000000800EC
:0E000C00213083120313FD00FD0B0A280800AB
:10001A000F3083120313FC004730FD00FD0B132839
:0A002A00FC0B132800000000080082
:10003400063083120313FD00FD0B1E280000080088
:1000440083120313EB01ED01EE011030EF000430D5
:100054006E0203185328F03086008030F0007008D8
:10006400063E84006F09F00070088000032003201E
:100074000F300605F0007008EC00700803194D28D5
:100084006D08EB006C0803194B28EC0CEC13EB0A1D
:1000940044280430EE00EF0D6F100430ED07EE0A33
:0800A40029286B08F000080098
:1000AC0083120313EB1B5C2888115D2888156B1BCE
:1000BC006128081162280815EB1A66288810672831
:1000CC0088146B1A6B2808106C28081454187028A4
:1000DC00081671280812881603208812EB19782844
:1000EC008811792888156B197D2808117E28081528
:1000FC00EB1882288810832888146B18872808101E
:10010C008828081454188C2808168D28081288166C
:10011C0003208812541C94280D20952806200800D2
:0E012C008312031353088A0052088200080051
:10013A0022207008EA000F300605F0000319A728EC
:0A014A001A20A0286A08F00008003F
:100154008312031354106A08EB0056205414080049
:100164009D207008DE0070080319B228E928313098
:10017400DE0029293230DE0029293330DE00292926
:100184004130DE0029293430DE0029293530DE00F3
:1001940029293630DE0029294230DE00292937306A
:1001A400DE0029293830DE0029293930DE002929EA
:1001B4004330DE0029292A30DE0029293030DE00D0
:1001C40029292330DE0029294430DE0029295E084C
:1001D400013A0319B9285E08023A0319BC285E08DB
:1001E400033A0319BF285E08043A0319C2285E08BB
:1001F400053A0319C5285E08063A0319C8285E089B
:10020400073A0319CB285E08083A0319CE285E087A
:10021400093A0319D1285E080A3A0319D4285E085A
:100224000B3A0319D7285E080C3A0319DA285E083A
:100234000D3A0319DD285E080E3A0319E0285E081A
:100244000F3A0319E3285E08103A0319E6285E08FA
:04025400F0000800AE
:100258003F3083120313DE000630DF005B30E0001E
:100268004F30E1006630E2006D30E3007D30E4009D
:100278000730E5007F30E600E701E801E90180305A
:100288006906F00080307002031D4C290A306802AC
:100298000318652968085E3E840000088700063058
:1002A800FB001330FC00AD30FD00FD0B5929FC0BA1
:1002B8005929FB0B592900000000E80A0319E90A2B
:0602C80043298701080034
:1002CE007929803083120313DE008C29C030DE00C2
:1002DE008C299430DE008C29D430DE008C298030BD
:1002EE00DE008C29831203135E08013A0319682974
:1002FE005E08023A03196D295E08033A0319702944
:10030E005E08043A0319732976295F03F0005E082C
:10031E00F0077008DE007008EB0056205410E10163
:10032E0061086007840000080319A52961086007A9
:10033E0084000008EA00AA20E10A97295414080054
:10034E00803083120313F0007008063E8400FF30E5
:04035E008000080013
:1003620096208A110A128000840AD20A0319D30A3B
:08037200F003031DB12908008E
:10037A0083160313881208120810881008118811AE
:10038A0083128812081288110811881008100D208B
:10039A000D200D20881408148816032088120D20B9
:1003AA008816032088120D208816032088120D2033
:1003BA0008108816032088120D2088160320881238
:1003CA00881088158816032088120D2088110814B1
:1003DA0088160320881208108816032088120D2018
:1003EA0088160320881208148816032088120D2004
:1003FA00081088160320881288150815881408140E
:0C040A008816032088120D2054140800EE
:10041600EA2283120313DB01DC01A72183160317EB
:10042600880189010313870183128701FF30831630
:100436008900850183128501BD210130EB0056201C
:100446000C30EB0056200630FB001330FC00AD30BC
:10045600FD00FD0B2C2AFC0B2C2AFB0B2C2A000082
:1004660000000130DE000130DF004230E00067218D
:100476000B30FB002630FC005D30FD00FD0B412AF1
:10048600FC0B412AFB0B412A000000000130EB0067
:10049600562080305C06F00080307002031D552A1D
:1004A60004305B020318662A5B08553EDD00B22065
:1004B6005D088400700880002A30EA00AA20DB0A62
:1004C6000319DC0A4C2AD9010130DE000130DF00B5
:1004D6005530E000672155082F06031D972A560858
:1004E6003006031D972A57083106031D972A580818
:1004F6003206031D972A0230DE000130DF0020306D
:10050600E000672105142C213330FB00BB30FC00D2
:10051600DF30FD00FD0B8D2AFC0B8D2AFB0B8D2A8F
:100526000000000005109F2A0230DE000130DF00C7
:100536003430E000672105101530FB004B30FC001D
:10054600BE30FD00FD0BA52AFC0BA52AFB0BA52A38
:1005560000000130EB005620DB01DC01342AB22A10
:1005D40020308400323083120313F000B830D2008C
:0805E4000230D300B121080030
:100570004134633463346534733473342034473422
:0E058000723461346E34743465346434003483
:0A058E003134323433343434003495
:1005980041346334633465347334733420344434FD
:0C05A80065346E3469346534643400340A
:1005B40045346E34743465347234203450346134C8
:1005C4007334733477346F34723464343A340034AB
:04400E00F22F000786
:00000001FF
