:02000000CD2B06
:06000600000000000800EC
:10000C000F3083120313FC004730FD00FD0B0C284E
:0A001C00FC0B0C2800000000080097
:0E002600213083120313FD00FD0B1728080084
:1000340083160313E71B21288312881123288312B4
:1000440088158316671B2928831208112B2883120D
:1000540008158316E71A312883128810332883126F
:1000640088148316671A3928831208103B288312D0
:1000740008146F183F280816402808128816032011
:1000840088128316E7194928831288114B28831292
:10009400881583166719512883120811532883126F
:1000A40008158316E7185928831288105B288312D1
:1000B4008814831667186128831208106328831232
:1000C40008146F1867280816682808128816032071
:0E00D40088126F1C6F28062070281320080069
:1000E200063083120313FD00FD0B75280000080083
:1000F200831203136F1083166208E7001A206F142D
:020102000800F3
:1001040083160313E201E401E5011030E600043034
:1001140065020318B728F030831286008030F0009F
:100124007008063E840083166609F000700880009B
:10013400032003200F3083120605F0007008831695
:10014400E30070080319B1286408E2006308031986
:10015400AF28E30CE313E20AA8280430E500E60D17
:1001640066100430E407E50A89286208F0000800F4
:1001740082207008DE000F3083120605F000031998
:0E018400C5287120BD2883165E08F000080013
:10019200DB28803083160313DE00EE28C030DE0039
:1001A200EE289430DE00EE28D430DE00EE288030D7
:1001B200DE00EE28831603135E08013A0319CA28EB
:1001C2005E08023A0319CF285E08033A0319D228BF
:1001D2005E08043A0319D528D8285F03F0005E08A8
:1001E200F0077008DE0083126F1470088316E700B0
:1001F2001A206F1083166008E7001A206F14080097
:10020200831603135E08F2007208F000F20A700807
:100212008400000803190E2905295E087202F00005
:0C0222000130F002F101031CF1030800A0
:0E022E00831203136E088A006D088200080018
:10023C003029803083160313DE004329C030DE00E2
:10024C0043299430DE004329D430DE00432980302A
:10025C00DE004329831603135E08013A03191F2994
:10026C005E08023A031924295E08033A0319272968
:10027C005E08043A03192A292D295F03F0005E0851
:10028C00F0077008DE007008E7001A206F10831664
:10029C00E101610860078400000803195E29610808
:1002AC00600784000008E20079208316E10A4F29D8
:0602BC0083126F1408001C
:1002C200023083160313D7000430D8000130D9005E
:1002D200DA01DB0180305B06F00080307002031D22
:1002E200742903305A020318A9295A08D73EF2008A
:1002F2007208840000080C3EF00005300318013E2D
:10030200F10070088312ED007108EE0017218A11C6
:100312000A12870002308316DE000130DF00720805
:10032200840030300007E000C9200B30FB0026308B
:10033200FC005D30FD00FD0B9C29FC0B9C29FB0B96
:100342009C29000000008316DA0A0319DB0A6B29D4
:0603520083128701080080
:10035800033083160313D7000530D800D901DA011A
:10036800DB0180305B06F00080307002031DBE297F
:1003780003305A020318F3295A08D73EF2007208CC
:10038800840000080C3EF00005300318013EF1001F
:1003980070088312ED007108EE0017218A110A1205
:1003A800870002308316DE000130DF007208840007
:1003B80030300007E000C9200B30FB002630FC007D
:1003C8005D30FD00FD0BE629FC0BE629FB0BE62959
:1003D800000000008316DA0A0319DB0AB529831224
:0403E8008701080081
:1003EC00023083160313D7000330D8000430D90031
:1003FC00DA01DB0180305B06F00080307002031DF7
:10040C00092A03305A0203183E2A5A08D73EF20032
:10041C007208840000080C3EF00005300318013E01
:10042C00F10070088312ED007108EE0017218A119B
:10043C000A12870002308316DE000130DF007208DA
:10044C00840030300007E000C9200B30FB00263060
:10045C00FC005D30FD00FD0B312AFC0B312AFB0B3F
:10046C00312A000000008316DA0A0319DB0A002A7D
:06047C0083128701080055
:10048200053083160313D7000630D8000730D90091
:10049200DA01DB0180305B06F00080307002031D60
:1004A200542A03305A020318892A5A08D73EF20006
:1004B2007208840000080C3EF00005300318013E6B
:1004C200F10070088312ED007108EE0017218A1105
:1004D2000A12870002308316DE000130DF00720844
:1004E200840030300007E000C9200B30FB002630CA
:1004F200FC005D30FD00FD0B7C2AFC0B7C2AFB0B13
:100502007C2A000000008316DA0A0319DB0A4B2A50
:06051200831287010800BE
:10051800831603135708DE0001217008D8007108FC
:10052800D900DA01DB010130DC000030DD000130E8
:10053800E7001A2001308316DE005A0ADF00570848
:10054800E0001E210430FB000C30FC003330FD00BD
:10055800FD0BAC2AFC0BAC2AFB0BAC2A00000000FC
:1005680083165C085A07F0005B080318013E5D0714
:10057800F1007008DA007108DB0058087007F20013
:1005880071080318013E5907F30080307306F00024
:1005980080307002031DD22A10307202031CD92A3F
:1005A800FF30DC00FF30DD00E82A8030F0008030CA
:1005B8005B067002031DE22A5A08003C031CE82A65
:1005C8000130DC000030DD00BA2070080319ED2A84
:0605D800EE2A9B2A080038
:1005DE00803083120313F0007008063E8400FF3053
:0405EE008000080081
:1005F2008316031388120812081088100811881134
:100602008312881208128811081188100810062017
:100612000620062088140814881603208812062053
:1006220088160320881206208816032088120620C6
:1006320008108816032088120620881603208812C4
:10064200881088158816032088120620881108143D
:1006520088160320881208108816032088120620A4
:100662008816032088120814881603208812062090
:100672000810881603208812881508158814081493
:0C06820088160320881206206F14080060
:10068E00BA207008D70070080319472B7E2B313023
:10069E00D700BE2B3230D700BE2B3330D700BE2B47
:1006AE004130D700BE2B3430D700BE2B3530D700AB
:1006BE00BE2B3630D700BE2B4230D700BE2B373084
:1006CE00D700BE2B3830D700BE2B3930D700BE2B0B
:1006DE004330D700BE2B2A30D700BE2B3030D70088
:1006EE00BE2B2330D700BE2B4430D700BE2B57086D
:1006FE00013A03194E2B5708023A0319512B57088A
:10070E00033A0319542B5708043A0319572B570869
:10071E00053A03195A2B5708063A03195D2B570849
:10072E00073A0319602B5708083A0319632B570829
:10073E00093A0319662B57080A3A0319692B570809
:10074E000B3A03196C2B57080C3A03196F2B5708E9
:10075E000D3A0319722B57080E3A0319752B5708C9
:10076E000F3A0319782B5708103A03197B2B5708A9
:04077E00F00008007F
:1007820017218A110A128000840AED0A0319EE0A5F
:08079200F003031DC12B080058
:10079A00162583160313D401D501EF2283160317F6
:1007AA00880189010313870183128701FF308316A9
:1007BA008900850183128501F92201308316E70039
:1007CA001A200C308316E7001A200630FB0013307B
:1007DA00FC00AD30FD00FD0BF02BFC0BF02BFB0BEE
:1007EA00F02B0000000020308316D7008C228030C6
:1007FA005506F00080307002031D052C02305402A9
:10080A0003181A2C5408CE3ED600472356088400F3
:10081A00700880005408CE3E84000008E200792067
:10082A008316D40A0319D50AFC2B4E083206031D77
:10083A002B2C4F083306031D2B2C0130DE0003300E
:10084A00DF00A030E0001E21F621752C83164E0829
:10085A003706031D3D2C4F083806031D3D2C013079
:10086A00DE000330DF00C130E0001E214122752C7A
:10087A0083164E083C06031D4F2C4F083D06031DE8
:10088A004F2C0130DE000330DF005C30E0001E2117
:10089A00AC21752C83164E0883123E06031D652C67
:1008AA0083164F0883123F06031D652C01308316F9
:1008BA00DE000330DF002F30E0001E216121752C9D
:1008CA0001308316DE000130DF004330E0001E21D4
:1008DA0002308316DE000130DF005130E0001E21B5
:1008EA000630FB001330FC00AD30FD00FD0B7B2C05
:1008FA00FC0B7B2CFB0B7B2C0000000001308316C9
:0E090A00E7001A208316D401D501F82B8B2CA0
:100A2C00203084004D3083120313F0009130ED0020
:100A3C000430EE00C123A03084002E308312F0006D
:0C0A4C00DE30ED000430EE00C123080095
:1009220045346E3474346534723420345234653450
:0E09320063346F347234643473343A340034F6
:100940003A344234613475346C3475342034613453
:0E0950006E34643420345A3465346334003419
:0A095E003234343400340034003425
:10096800573472346F346E346734203452346534FB
:0C09780063346F34723464347334003420
:1009840054347234793420344134673461346934F2
:060994006E342134003432
:10099A003A3441346C347534743465347934693496
:1009AA00203461346E3464342034443461346F3416
:0209BA00003407
:1009BC003A345A3465346334203461346E346434DC
:1009CC002034203441346C347534743465347934C7
:0409DC006934003446
:0A09E00032343334003400340034A4
:0A09EA003534323400340034003498
:0A09F400333435340034003400348D
:1009FE003A34443461346F34203461346E346434A8
:0A0A0E0020345A3465346334003498
:100A18003F3406345B344F3466346D347D340734E8
:040A28007F346F3474
:04400E00F22F000786
:00000001FF
