:02000000C52811
:06000600000000000800EC
:0E000C00213083120313FD00FD0B0A280800AB
:10001A000F3083120313FC004730FD00FD0B132839
:0A002A00FC0B132800000000080082
:0E0034008312031321088A00200882000800AE
:100042001A208A110A128000840AA00A0319A10A3E
:08005200F003031D2128080042
:10005A0083160313861206120610861006118611DD
:10006A0083128612061286110611861006100D20BA
:10007A000D200D20861406148616032086120D20E4
:10008A008616032086120D208616032086120D205E
:10009A0006108616032086120D2086160320861265
:1000AA00861086158616032086120D2086110614E0
:1000BA0086160320861206108616032086120D2045
:1000CA0086160320861206148616032086120D2031
:1000DA00061086160320861286150615861406143F
:0C00EA008616032086120D202214080048
:1000F60083120313A41B8128861182288615241BCC
:100106008628061187280615A41A8B2886108C289F
:100116008614241A90280610912806142218952869
:10012600061696280612861603208612A4199D28FE
:1001360086119E2886152419A2280611A3280615BD
:10014600A418A7288610A82886142418AC280610F8
:10015600AD2806142218B1280616B22806128616ED
:1001660003208612221CB9280D20BA280620080072
:10017600803083120313F0007008083E8400FF30BD
:0401860080000800ED
:10018A0083120313A301BB20831603178801890175
:10019A002D200130A4007B200C30A4007B20D42821
:0201AA00D52856
:04400E00F22F000786
:00000001FF
