:02000000AE2927
:06000600000000000800EC
:0E000C00213083120313FD00FD0B0A280800AB
:10001A000F3083120313FC004730FD00FD0B132839
:0A002A00FC0B132800000000080082
:10003400063083120313FD00FD0B1E280000080088
:1000440083120313A801AA01AB011030AC000430E1
:100054002B0203185328F03088008030F000700819
:10006400083E84002C09F00070088000032003205F
:100074000F300805F0007008A900700803194D2816
:100084002A08A800290803194B28A90CA913A80AAF
:1000940044280430AB00AC0D2C100430AA07AB0A82
:0800A40029282808F0000800DB
:0E00AC008312031321088A0020088200080036
:1000BA0083120313A71B6328861164288615271B3E
:1000CA006828061169280615A71A6D2886106E2851
:1000DA008614271A722806107328061422187728FD
:1000EA00061678280612861603208612A7197F2874
:1000FA008611802886152719842806118528061551
:10010A00A718892886108A28861427188E28061088
:10011A008F28061422189328061694280612861683
:10012A0003208612221C9B280D209C2806200800EA
:10013A0022207008A7000F300805F0000319A7282D
:0A014A001A20A0282708F000080082
:100154009D207008A30070080319AA2801293730CC
:10016400F0000030F10041293830F0000030F10097
:1001740041293930F0000030F10041292F30F000DE
:100184000030F10041293430F0000030F100412901
:100194003530F0000030F10041293630F0000030F5
:1001A400F10041292A30F0000030F10041293130BA
:1001B400F0000030F10041293230F0000030F1004D
:1001C40041293330F0000030F10041292D30F00096
:1001D4000030F10041297F30F0000030F100412966
:1001E4003030F0000030F10041293D30F0000030A3
:1001F400F10041292B30F0000030F100412923089F
:10020400013A0319B1282308023A0319B62823082E
:10021400033A0319BB282308043A0319C028230806
:10022400053A0319C5282308063A0319CA282308DE
:10023400073A0319CF282308083A0319D4282308B6
:10024400093A0319D92823080A3A0319DE2823088E
:100254000B3A0319E32823080C3A0319E828230866
:100264000D3A0319ED2823080E3A0319F22823083E
:100274000F3A0319F7282308103A0319FC28080039
:1002840083160313861206120610861006118611B1
:1002940083128612061286110611861006100D208E
:1002A4000D200D20861406148616032086120D20B8
:1002B4008616032086120D208616032086120D2032
:1002C40006108616032086120D2086160320861239
:1002D400861086158616032086120D2086110614B4
:1002E40086160320861206108616032086120D2019
:1002F40086160320861206148616032086120D2005
:100304000610861603208612861506158614061412
:0C0314008616032086120D20221408001B
:100320008312031322102608A7005D202214080060
:10033000803083120313F0007008083E8400FF3001
:040340008000080031
:1003440056208A110A128000840AA00A0319A10AFD
:08035400F003031DA2290800BB
:10035C009821831603178801890142210130A700D7
:10036C005D200C30A7005D20AA20831203137008B7
:10037C00A4007108A50000307106031DC7297F3049
:10038C0070060319CD292408A6009021D02901302C
:08039C00A7005D20BA29D12958
:04400E00F22F000786
:00000001FF
