:020000000329D2
:0E000600213083120313FD00FD0B07280800B4
:100014000F3083120313FC004730FD00FD0B102842
:0A002400FC0B10280000000008008B
:06002E00000000000800C4
:1000340083120313B31B2028881121288815331B2E
:100044002528081126280815B31A2A2888102B28D1
:100054008814331A2F280810302808142D1834282F
:10006400081635280812881617208812B3193C2858
:1000740088113D288815331941280811422808158C
:10008400B318462888104728881433184B280810BA
:100094004C2808142D1850280816512808128816C0
:1000A400172088122D1C58280A20592803200800DC
:0E00B400831203132C088A002B088200080018
:1000C200831203132D103208B3001A202D140800D6
:1000D2008316031388120812081088100811881159
:1000E20083128812081288110811881008100A2039
:1000F2000A200A20881408148816172088120A2059
:100102008816172088120A208816172088120A20BB
:1001120008108816172088120A20881617208812BD
:10012200881088158816172088120A20881108144A
:1001320088161720881208108816172088120A209D
:1001420088161720881208148816172088120A2089
:1001520008108816172088128815081588140814A4
:0C0162008816172088120A202D140800AF
:10016E00C928803083120313AE00DC28C030AE00E5
:10017E00DC289430AE00DC28D430AE00DC28803091
:10018E00AE00DC28831203132E08013A0319B82897
:10019E002E08023A0319BD282E08033A0319C02867
:1001AE002E08043A0319C328C6282F03F0002E0880
:1001BE00F0077008AE007008B3001A202D10B101C0
:1001CE0031083007840000080319F528310830077C
:1001DE0084000008B2006120B10AE7282D1408003F
:1001EE005A208A110A128000840AAB0A0319AC0A3B
:0801FE00F003031DF7280800BF
:100206004B3083120313A0006130A1006130A200BD
:100216007230A3006130A400A5014730A60061300A
:10022600A7006D30A8006930A900AA016920013035
:10023600B3001A200C30B3001A200130AE00013092
:10024600AF002030B000B7200230AE000130AF0062
:080256002630B000B7202E296C
:04400E00F22F000786
:00000001FF
