:020000000328D3
:10000600FF308316031386008501031789018801D3
:1000160083120313850106183A2886183A28F20136
:10002600F30180307306F00080307002031D1D2836
:1000360008307202031839287208F1000130F00006
:10004600710803192A28F00D7010FF3E2428700845
:1000560085001A30FC00F830FD00FD0B3028FC0B43
:1000660030280000F20A0319F30A14288928061812
:100076006928861C69280730F4000030F5008030B6
:100086007506F00080307002031D4B2800307402A4
:10009600031C68287408F1000130F0007108031988
:1000A6005828F00D7010FF3E5228700885001A304F
:1000B600FC00F830FD00FD0B5E28FC0B5E280000FE
:1000C6000130F402031CF50342288928061C702817
:1000D60086187028FF3085008928061C8928861C0A
:1000E6008928FF3085001A30FC00F830FD00FD0B32
:1000F6007A28FC0B7A28000085011A30FC00F830BB
:10010600FD00FD0B8428FC0B842800000E288A289D
:04400E00F22F000786
:00000001FF
