:02000000AE2927
:1000060083120313850185171A30FC00F830FD00B2
:10001600FD0B0B28FC0B0B28000085131A30FC0087
:10002600F830FD00FD0B1528FC0B15280000061CFA
:100036001F2886181F28C92805171A30FC00F83013
:10004600FD00FD0B2428FC0B2428000005131A30A4
:10005600FC00F830FD00FD0B2E28FC0B2E280000BE
:10006600061C382886183828C92885161A30FC0038
:10007600F830FD00FD0B3D28FC0B3D2800008512E5
:100086001A30FC00F830FD00FD0B4728FC0B472812
:100096000000061C512886185128C92805161A3052
:1000A600FC00F830FD00FD0B5628FC0B562800001E
:1000B60005121A30FC00F830FD00FD0B6028FC0B21
:1000C60060280000061C6A2886186A28C928851533
:1000D6001A30FC00F830FD00FD0B6F28FC0B6F2872
:1000E600000085111A30FC00F830FD00FD0B792860
:1000F600FC0B79280000061C832886188328C9284B
:1001060005151A30FC00F830FD00FD0B8828FC0BA5
:100116008828000005111A30FC00F830FD00FD0BA0
:100126009228FC0B92280000061C9C2886189C2806
:10013600C92885141A30FC00F830FD00FD0BA128F3
:10014600FC0BA128000085101A30FC00F830FD00D9
:10015600FD0BAB28FC0BAB280000061CB528861847
:10016600B528C92805141A30FC00F830FD00FD0B2F
:10017600BA28FC0BBA28000005101A30FC00F8302B
:0E018600FD00FD0BC428FC0BC428000008007F
:1001940083120313850105141A30FC00F830FD00A6
:1001A400FD0BD228FC0BD228000005101A30FC00ED
:1001B400F830FD00FD0BDC28FC0BDC280000061CDD
:1001C400E628861CE628902985141A30FC00F830AD
:1001D400FD00FD0BEB28FC0BEB28000085101A300A
:1001E400FC00F830FD00FD0BF528FC0BF5280000A1
:1001F400061CFF28861CFF28902905151A30FC00D0
:10020400F830FD00FD0B0429FC0B04290000051146
:100214001A30FC00F830FD00FD0B0E29FC0B0E29F2
:100224000000061C1829861C1829902985151A30E7
:10023400FC00F830FD00FD0B1D29FC0B1D290000FE
:1002440085111A30FC00F830FD00FD0B2729FC0B4A
:1002540027290000061C3129861C312990290516FE
:100264001A30FC00F830FD00FD0B3629FC0B362952
:10027400000005121A30FC00F830FD00FD0B402987
:10028400FC0B40290000061C4A29861C4A29902997
:1002940085161A30FC00F830FD00FD0B4F29FC0BCD
:1002A4004F29000085121A30FC00F830FD00FD0BC8
:1002B4005929FC0B59290000061C6329861C632953
:1002C400902905171A30FC00F830FD00FD0B682951
:1002D400FC0B6829000005131A30FC00F830FD00FF
:1002E400FD0B7229FC0B72290000061C7C29861C5C
:1002F4007C29902985171A30FC00F830FD00FD0B8D
:100304008129FC0B8129000085131A30FC00F83088
:0E031400FD00FD0B8B29FC0B8B29000008005F
:0A032200FF3083120313850008006A
:10032C00FF308312031385001A30FC00F830FD00F7
:10033C00FD0B9E29FC0B9E29000085011A30FC0048
:10034C00F830FD00FD0BA829FC0BA82900000800C3
:10035C00FF3083160313860085010317890188017A
:10036C00831203130618BE298618BE29CA20CF296A
:10037C000618C429861CC4290320CF29061CCA29A7
:10038C008618CA299121CF29061CCF29861CCF2972
:06039C009621B629D029CC
:04400E00F22F000786
:00000001FF
